:020000040000FA
:10000000C802001089010000910100009301000066
:100010009501000097010000990100000000000018
:100020000000000000000000000000009B01000034
:100030009D010000000000009F010000A1010000E0
:10004000A3010000F1050000A3010000A3010000CE
:10005000A3010000E5090000A3010000A3010000C6
:10006000A3010000A3010000A3010000A301000000
:10007000A3010000A3010000A3010000A3010000F0
:10008000A3010000A3010000A3010000A3010000E0
:10009000A3010000A3010000A3010000A3010000D0
:1000A000A3010000A3010000A3010000A3010000C0
:1000B000A3010000A3010000A3010000A3010000B0
:1000C000A3010000A3010000A301000000F002F85A
:1000D00000F04BF80AA090E8000C82448344AAF197
:1000E0000107DA4501D100F040F8AFF2090EBAE895
:1000F0000F0013F0010F18BFFB1A43F0010318475C
:1001000098100000B8100000103A24BF78C878C1D9
:10011000FAD8520724BF30C830C144BF04680C600D
:10012000704700000023002400250026103A28BF55
:1001300078C1FBD8520728BF30C148BF0B60704759
:10014000642900F0AD85732900F0FF860020704718
:100150001FB500F0B7FF04000020002100F0D6FF1B
:10016000401C60601FBD10B510BD00F086FF114639
:10017000FFF7EEFF00F052FA00F0B6FF03B4FFF70E
:10018000F2FF03BC00F0BAFF094880470948004766
:10019000FEE7FEE7FEE7FEE7FEE7FEE7FEE7FEE737
:1001A000FEE7FEE704480549034A054B7047000097
:1001B00099040000CD000000C8000010C802001023
:1001C000C800001053EA020C00F069802DE9F04BE2
:1001D0004FF00006002B1FBFB3FA83F503FA05F4B6
:1001E00024FA05F65E4012BF1643B2FA82F502FA0F
:1001F00005F4C5F120051EBF22FA05FC44EA0C04F3
:10020000203556EA044C4FEA144418BF641C4FF0E2
:1002100000084FF00009904271EB030C39D300291C
:1002200019BFB1FA81F701FA07F6B0FA80F700FAC0
:1002300007F6C7F120071EBF20FA07FC46EA0C06A6
:100240002037B6FBF4FCA7EB0507103F07F01F0BA8
:10025000CBF120060CFA0BFB2CFA06F644BFB34692
:100260000026202FA4BF5E464FF0000B5BEA060C71
:1002700008BF4FF0010B19EB0B09ABFB027C48EBFD
:100280000608C01B06FB02CC0BFB03CC71EB0C0178
:10029000C1E70B46024641464846BDE8F08B13B520
:1002A0004FF000004FF00001AFF30080BDE81C40AC
:1002B000704700000FB41CB5074B06AA7B44694683
:1002C0000090059800F017FE0020694600F026FE19
:1002D0001CBC5DF814FB00005D0C000070B5064608
:1002E00000F0A6FD0468054630460A22002100F011
:1002F00030FE2C6070BD704770477047FFFFFFFFF6
:100300002DE9F04798480068C0F3016003287DD1CB
:1003100095488430006800F0030030B1012830D0E7
:10032000022859D003282BD100E000BF8E48006876
:10033000C0F30740441C02218B488838D0F888005D
:10034000C0F30E00401CA1FB0001884B4FF0000CD5
:10035000A0FB037901FB039100FB0C1122466346CD
:100360003846FFF72FFF05467F487C300068C0B253
:10037000441C224600232846FFF724FF7C490860DE
:1003800056E079480068C0F30740441C02217648D3
:100390008838D0F88800C0F30E00401CA1FB001084
:1003A000744A4FF0000CA1FB027900FB029001FBA4
:1003B0000C01224663463846FFF704FF05466A48AB
:1003C0007C300068C0B2441C224600232846FFF758
:1003D000F9FE674908602BE063480068C0F30740F6
:1003E000441C022160488838D0F88800C0F30E0011
:1003F000401CA1FB00124FF400400023A1FB007938
:1004000002FB009001FB0301224600E011E03846A8
:10041000FFF7D8FE054654487C300068C0B2441C43
:10042000224600232846FFF7CDFE5149086000BF51
:1004300030E04D488430006800F0030030B10128FE
:1004400010D0022819D0032823D100E000BF46486D
:100450007C300068C0B2401C4449B1FBF0F0444914
:10046000086016E040487C300068C0B2401C41493A
:10047000B1FBF0F03E4908600BE03B487C3000687F
:10048000C0B2401C4FF40041B1FBF0F038490860A5
:1004900000BF00BFBDE8F087202037490860324820
:1004A0008838D0F8A00100F0200030B100BF3248F9
:1004B000006800F040000028F9D003202A497C3170
:1004C0000860002028498839C1F8A8012A490C3160
:1004D0000860012024498431086028482249091F06
:1004E0000860AA202049091D0860552008600120E5
:1004F0001D4908390860AA201B49091D08605520BC
:1005000019498839C1F88C0000BF1748006800F00D
:1005100080600028F9D00320134908390860AA2018
:1005200011498839C1F88C0055200F49091D086010
:1005300000BF0D48006800F040700028F9D000208E
:100540000949803108600E4807498839C1F8C4005C
:100550000020C1F8C8010846006820F4704040F44B
:10056000804008607047000088C00F4000093D00CF
:1005700000000010001BB700A0C10F406300050081
:10058000DE87280400280BDB00F01F0201219140C8
:10059000C04A430942F82310BFF34F8FBFF36F8F58
:1005A000704710B5BC48006840F00200BA49C43931
:1005B000C1F8C40000204FF04021C860032048610A
:1005C000B648886101200A21002804DBCA06130E00
:1005D000B34A135406E0CA06140EB24A00F00F03E1
:1005E0001B1FD45400BF01204FF04021486010BDB4
:1005F00010B54FF04020006840F001004FF040215E
:100600000860A948A9A10268AE48FFF753FEAD48AB
:1006100000F01FFA0420AC49087010BDAB48006E12
:1006200040F00070A94908660846C06F40F00070AD
:10063000C867A748A74908604FF4164000F096FA2B
:10064000FFF7AFFF0120A049087021E19E48007824
:1006500008287BD2DFE800F07A040B12C6F0EEED3A
:100660009D4800F0F6F90220974908700FE101203B
:100670009A49086005209449087008E19748006885
:1006800001280AD1924A96A18E48FFF713FE8D48A1
:1006900000F0DFF904208C490870904800680028B9
:1006A0000FD19349087093A1894800F081FB48B9A4
:1006B0008648406F20F000708449486704208249D2
:1006C00008708EE08EA1824800F072FB48B97F4826
:1006D000406F40F000707D49486704207A490870F7
:1006E0007FE089A17A4800F063FB58B9012088496E
:1006F00008708849086088A000F0ABF904207249AE
:1007000008706EE089A1724800F052FB60B9894818
:1007100089A102686B48FFF7CDFD6A4800F099F99E
:100720000420694908705CE08BA1694800F040FB37
:1007300068B95D485DA102686248FFF7BBFD61488A
:1007400000F087F90420604908704AE09EE0062224
:1007500084A15F4800F0E0FA70B95D4A921D83A160
:100760008348FFF7A7FD8248FFF7B8FD714908608D
:1007700005205549087034E07EA1554800F018FB6B
:1007800050B902204FF0402148600120FFF7FAFEE7
:1007900005204D49087024E078A14D4800F008FB81
:1007A000C8B901204FF04021486000BF00280DDB90
:1007B00000BF00BF00F01F020121914042099200DA
:1007C00002F1E022C2F8001100BF00BF00BF052007
:1007D0003D49087005E06DA000F03BF906203A495C
:1007E000087054E03D480068012811D16C48007839
:1007F00001280DD10020394908606AA000F029F9CC
:1008000000203B4908706649087005202E49087091
:100810004048006828B93148006810B905202A49C5
:1008200008703C480068012802D10720264908705A
:100830002DE01DE012E0FFE72D480078012802D1ED
:1008400003202149087056480078012805D100206E
:100850005349087005201C49087018E0504800787A
:1008600028B100204E4908700520174908700EE095
:100870004B48007848B100204949087002204FF0E9
:10088000402148600120FFF77DFE00E000BF00BF6F
:10089000DCE6000080E100E0C4C00F4040787D014C
:1008A00000E400E018ED00E0200000100A20446998
:1008B0007374616E6369613A20256420636D200D55
:1008C0000A0A0000460000101200001000C00920B3
:1008D000280000100400001038110000140000105F
:1008E0000A486F6C61202573200D0A0A0000000081
:1008F00008000010656E6369656E64650D00000098
:1009000061706167610D000066696E0D0000000096
:10091000110000101800001046494E2064656C203C
:1009200070726F6772616D610A0D00007365727697
:100930006F0D00001C0000100A20416E67756C6F7F
:1009400020736572766F3A20256420677261646F48
:1009500073200D0A0A00000064697374616E636994
:10096000610D0000736572766F2000002573000032
:100970002400001073746F700D00000064697374BC
:10098000616E6369615F740D00000000436F6D610B
:100990006E646F206572726F6E656F0A0D000000E5
:1009A00010000010496E74726F6475636520756E77
:1009B00020636F6D616E646F3A20286170616761BA
:1009C000206F20656E6369656E64652D2D66696EA6
:1009D0002070617261207465726D696E6172292088
:1009E0000A0D00007648806800F00E0002281BD037
:1009F00004282CD17248007872490968087071483F
:100A0000006801786F480068401C6E4A10600D292C
:100A100009D1002011460968087001206A49087050
:100A20006A481146086012E069480068007850B1D1
:100A30006748006800786249087065480068401C93
:100A40006349086002E001206249087000BF00BFEE
:100A500070475F49086000215E4A11705C4909686F
:100A60000978574A11705A490968491C584A116057
:100A700070472DE9F84F01464FF0FF30DFF858B1CD
:100A8000DBF800B04FEA9B080026002700234FF058
:100A9000010A4FF0000BCDF800B04FF0000900251F
:100AA000DFF838C14FEA181801222CE0002424E0B6
:100AB00002FB08FB02EB040EBBFBFEF7B7FBF1F3F6
:100AC000B7FBF1FB01FB1B7BBBEB510F00D95B1CA0
:100AD000022B11D9B3F5803F0ED2B7FBF3F68E424D
:100AE00001D88D1B00E0751A654505D29246009429
:100AF0009946AC4605B902E0641C0F2CD8D900BF5A
:100B000005B902E0521C0F2AD0D900BF01EB410BFE
:100B10004FF0640EBBFBFEFBE34525D9DFF8A0B028
:100B20009BF80CB04BF0800BDFF894E08EF80CB023
:100B30004FEA192B8EF804B08EF80090F3469BF81C
:100B40000CB02BF0800B8EF80CB04FF0F00B0BEAD2
:100B50000A1BDDF800E00EF00F0E4BEA0E0BDFF87B
:100B600060E08EF828B00020BDE8F88F10B504468C
:100B70001B48006840F05000194908601048007B8D
:100B80000F4908730846007B40F0030008732046B5
:100B9000FFF76FFF03200A494860052000280DDB9E
:100BA00000BF00BF00F01F020121914042099200E6
:100BB00002F1E022C2F8001100BF00BF00BF10BD6B
:100BC00000C00040040000100800001028000010C1
:100BD0000C0000101000001000000010A0860100A2
:100BE00000C002402DE9F0410E460446002020627C
:100BF0002046E168884730B3252805D0D4E9012193
:100C00009047206A401CF2E7E168204600278847A9
:100C1000050018D0A5F14100192802D820354FF45D
:100C200000673246294620462760FFF789FA40B11F
:100C3000012804D0F61D26F007060836D8E7361D31
:100C4000D6E72846DAE7206ABDE8F08170B50C46A1
:100C50000546012A05D02878800600D5EA690023D8
:100C600002E0012305E05B1C934202D2E05C002815
:100C7000F9D1A869E618C01AA861286A1844286240
:100C80002846AFF3008004E0D5E9012114F8010BF8
:100C90009047B442F8D32846AFF3008070BD0000FF
:100CA0002DE9F0410646002410687529314616A545
:100CB00010D0AFF30080002802DA404213A507E00D
:100CC00031688A0701D512A502E0490704D511A5AC
:100CD000012401E0AFF3008000210A2206F124077D
:100CE00009E0B0FBF2FCB0FBF2F302FB1C00303079
:100CF00078541846491C0028F3D123462A4630462A
:100D0000BDE8F04100F098B8000000002D000000A0
:100D10002B0000002000000040EA010370B59B0793
:100D20002ED14FF00136042A2AD308C810C99D1BC2
:100D30009D43121F15EAC61517D0D8B2E1B2401A6A
:100D400050EA056110D198B2A1B2401A50EA0541AB
:100D50000AD123F07F4024F07F41401A50EA052158
:100D600002D1180EA0EB146070BDA342DBD018BAFC
:100D700021BA884201D9012070BD4FF0FF3070BD0B
:100D80000AB9002070BD10F8013B11F8014B63B1A6
:100D9000A3420AD1521E08D010F8013B11F8014BB2
:100DA0001BB1A34201D1521EEDD1181B70BD000032
:100DB0004FF0013C50F8042B51F8043B9A4221D1EA
:100DC000A2EB0C03934313EACC1317D150F8042B76
:100DD00051F8043B9A4215D1A2EB0C03934313EA5A
:100DE000CC130BD150F8042B51F8043B9A4209D193
:100DF000A2EB0C03934313EACC13DBD04FF00000BB
:100E0000704700BFD01A01BAB1FA81F101F01801A0
:100E100022FA01F0CB40C1F12001DBB2C0B2C01A0E
:100E20002CFA01F3D11A914311EAC311E6D17047AC
:100E300000487047640000102DE9F0470D469946C0
:100E40009246044600F124080168880604D5E0694A
:100E500021F01001216000E00120A84201DD471BC4
:100E600000E00027A1697A1902EB0900081AA061C5
:100E70002078C00602D42046AFF30080002608E0A8
:100E8000D4E901211AF806009047206A401C761C1C
:100E900020624E45F4DB2078C0060AD52046AFF329
:100EA000008006E0D4E9012130209047206A401CF0
:100EB0002062381EA7F10107F4DC07E0D4E9012124
:100EC00018F805009047206A401C2062281EA5F1F2
:100ED0000105F3DC2046AFF300802078000602D540
:100EE0000220BDE8F0870120FBE7000001694A1CF1
:100EF00002610878704700B58FB0CDE9013100215B
:100F0000059105497944CDE9031011466846FFF77C
:100F100069FE0FB000BD0000E5FFFFFF0A6802F8A0
:100F2000010B0A60704710B5436913B1AFF300803D
:100F300001E0FFF78BFE012010BD127800F12401C3
:100F40000A7000224A700122EDE711684FF0FF326B
:100F5000E9E72DE9F04791460F4680460446002612
:100F600014F8015B2DB100F031F80068405DC00756
:100F7000F6D12B2D02D02D2D18D0641E4A463946AD
:100F8000204600F02BF827B13968A14201D1C7F8FB
:100F900000804FF0020471050BD54042002803DDAC
:100FA000FFF746FF0460A007BDE8F08746F48066BF
:100FB000E4E70028F8DAFFF73BFF04606FF0004039
:100FC000F2E70000004870476400001010B500F020
:100FD00079F8001D10BD00BF350100002DE9F05F5C
:100FE000824615468B4600270AF10104B94600786F
:100FF000302801D09DB113E014F8010B01277828A7
:1010000003D0582801D045B10AE00DB1102D07D109
:10101000002714F8010B102502E0082500E00A253E
:101020000026B0460EE005FB080005FB06F101278F
:101030001FFA80F801EB1046B6F5803F00D3B946A1
:1010400014F8010B294600F041F80028EBDABBF157
:10105000000F05D00FB1641E00E05446CBF80040ED
:10106000B9F1000F06D0FFF7E3FE02210160C81EB0
:10107000BDE8F09F48EA0640FAE77546FFF7A2FF91
:10108000AE4605006946534620F00700854618B075
:1010900020B5FFF787F8BDE820404FF000064FF07D
:1010A00000074FF000084FF0000B21F00701AC469D
:1010B000ACE8C009ACE8C009ACE8C009ACE8C009BC
:1010C0008D46704700487047840000103A2800D2CF
:1010D000303820F02002412A01D3A2F137008842A3
:1010E00001D34FF0FF30704710B50446AFF30080D6
:1010F0002046BDE81040FFF741B800000149182024
:10110000ABBEFEE7260002007047000010B50029C4
:101110000AD00878002807D005487844FFF748FE31
:10112000002801D0002010BD0248784410BD000006
:101130009E000000960000004573746F20657320C8
:10114000756E6120707275656261206465206C61E6
:101150002055415254302064656C204C5043313747
:101160003638206120393630302062617564696F0D
:10117000730A0D496E74726F64756365207475200F
:101180006E6F6D6272652079206170656C6C696448
:101190006F730A0D00000000C8120000000000106C
:1011A0002800000008010000F012000028000010D4
:1011B000A002000024010000100100004300000014
:1011C000F8FFFFFF00404040404040404040414168
:1011D000414141404040404040404040404040400C
:1011E00040404040400502020202020202020202A6
:1011F00002020202022020202020202020202002A3
:101200000202020202029090909090901010101032
:1012100010101010101010101010101010101010CE
:101220000202020202028888888888880808080862
:10123000080808080808080808080808080808082E
:101240000202020240000000000000000000000056
:10125000000000000000000000000000000000008E
:10126000000000000000000000000000000000007E
:10127000000000000000000000000000000000006E
:10128000000000000000000000000000000000005E
:10129000000000000000000000000000000000004E
:1012A000000000000000000000000000000000003E
:1012B000000000000000000000000000000000002E
:1012C000000000000000000000E1F5050000000043
:1012D000000000000000000000000000000000000E
:1012E00000000000000000000000000000000000FE
:04000005000000CD2A
:00000001FF
